:040000005DEF00F0C0
:100008001A82F29232EF00F0050EBE6E010E196EE2
:100018005BEF00F00F0EBE6E020E196E5BEF00F084
:10002800190EBE6E030E196E5BEF00F0230EBE6E46
:10003800040E196E5BEF00F02D0EBE6E050E196EE4
:100048005BEF00F0370EBE6E060E196E5BEF00F028
:10005800410EBE6E070E196E5BEF00F01950016E6F
:10006800026A0250000AD8B43CEF00F05BEF00F0DF
:100078000150000AD8B408EF00F0010AD8B40EEF16
:1000880000F0030AD8B414EF00F0010AD8B41AEF4C
:1000980000F0070AD8B420EF00F0010AD8B426EF20
:1000A80000F0030AD8B42CEF00F05BEF00F01A92CE
:0600B800110063EF06F0E9
:10080000007072696D657220656A656D706C6F004D
:070810004C4D33353A0000A6
:100818000FC008F010C009F0030E0B6EE80E0A6E48
:1008280095EC04F00850186E030E066EE80E056E7F
:100838000FC003F010C004F008EC05F003C008F086
:1008480004C009F0000E0B6E640E0A6E95EC04F0FD
:100858000850176E000E066E640E056E0FC003F08A
:1008680010C004F008EC05F003C008F004C009F05B
:10087800000E0B6E0A0E0A6E95EC04F00850166E08
:100888000FC003F010C004F0000E066E0A0E056ECD
:1008980008EC05F00350156E120088EC05F0000E08
:1008A800066E010EA5EC05F0010E076E080E086E27
:1008B80063EC05F043EC06F003C008F004C009F04F
:1008C800000E0B6E0A0E0A6E95EC04F008C011F0CB
:1008D80009C012F011C00FF012C010F00CEC04F0B7
:1008E800000E066E020EA5EC05F0100E076E080E3F
:1008F800086E63EC05F01750300FF9EC05F0165050
:10090800300FF9EC05F01550300FF9EC05F0DF0E5B
:10091800F9EC05F0430EF9EC05F05EEF04F05DEF3D
:1009280000F0000E0D6E000E0C6E0A500B10D8B4BD
:10093800A0EF04F0A2EF04F0CAEF04F0010E0E6E6F
:10094800AAEF04F0D8900A360B360E2A0BAEAFEF9A
:1009580004F0B1EF04F0A6EF04F0D8900C360D3691
:100968000A50085C0B500958D8A0BDEF04F0BFEF3F
:1009780004F0C4EF04F00A50085E0B50095A0C80CA
:10098800D8900B320A320E2EB1EF04F00CC008F0EA
:100998000DC009F01200F80E956E8C908C828C8434
:1009A800210EE82EFED700F083CF03F08C94210EA1
:1009B800E82EFED700F08C84210EE82EFED700F03A
:1009C8008C940350800B036EFEEF04F08C84210E90
:1009D800E82EFED700F083CF03F08C94210EE82E8A
:1009E800FED700F08C84210EE82EFED700F08C9400
:1009F800E5EF04F0800E0318D8B405EF05F007EF13
:100A080005F0EAEF04F0120005500610D8B40FEF15
:100A180005F011EF05F035EF05F0010E076E19EF3F
:100A280005F0D89005360636072A06AE1EEF05F003
:100A380020EF05F015EF05F00550035C065004584B
:100A4800D8A029EF05F02BEF05F02FEF05F00550A2
:100A5800035E0650045AD89006320532072E20EF5E
:100A680005F003C003F004C004F012008C908C92CF
:100A7800300E55EC06F0030E066E980EE82EFED7E3
:100A8800062EFCD7300E55EC06F0210EE82EFED7C8
:100A980000F0300E55EC06F0200E55EC06F0010E75
:100AA800DFEC05F0280EDFEC05F00F0EDFEC05F0AB
:100AB800060EDFEC05F0010EDFEC05F0120007C0B2
:100AC80003F008C004F0C2EC05F003500B6E000EF2
:100AD8000C6E7EEF05F00C500724096E000E0820FE
:100AE8000A6E09C0F6FF0AC0F7FF0800F550F9ECD6
:100AF80005F00C2A0B500C5CD8A085EF05F087EFA9
:100B080005F06FEF05F01200520ED36E92800F01C0
:100B18005B8192865B9793805C91F19E8590080E2D
:100B2800956E000E5E6F13EC06F03E0EBB6E1F0E48
:100B3800BE6E060EBA6E0C0EBD6EF28EF288F19C79
:100B48001200076E0704D8A4ACEF05F0AEEF05F06D
:100B5800B4EF05F00650800FDFEC05F0C1EF05F0AB
:100B6800020E0718D8A4BBEF05F0BDEF05F0C1EFE2
:100B780005F00650C00FDFEC05F0120003C005F0C9
:100B880004C006F0CAEF05F0034A042A03C0F6FFC2
:100B980004C0F7FF0800F5500009D8A4D6EF05F007
:100BA800D8EF05F0C8EF05F00550035C036E06505A
:100BB8000458046E1200046E8C90CFEC04F0000E02
:100BC800956E210EE82EFED700F08C928C948C90B6
:100BD8000450F00B056E055055EC06F00438F00B88
:100BE800056E055055EC06F01200046E8C80CFECB3
:100BF80004F0000E956E210EE82EFED700F08C92C0
:100C08008C948C800450F00B056E055055EC06F062
:100C18000438F00B056E055055EC06F01200140E62
:100C2800076E7A0EE82EFED7072EFCD73AEC05F0B1
:100C3800140E076E7A0EE82EFED7072EFCD774EC3A
:100C480006F070EC06F0010E2BEC06F01200066EB2
:100C58000650D8A432EF06F034EF06F037EF06F06E
:100C68000E0EDFEC05F00604D8A43DEF06F03FEFCA
:100C780006F042EF06F00C0EDFEC05F01200C2821F
:100C8800C2B249EF06F04BEF06F044EF06F0C4504D
:100C9800066E056AC3500524036E000E0620046E16
:100CA8001200036E0F0E8C16F00E031603508C12F2
:100CB8008C84210EE82EFED700F08C94120000EEF2
:100CC80013F0070EEE6AE806FDE11A901A92000E7C
:100CD800F86E000151EF04F0020EDFEC05F012008F
:080CE800010EDFEC05F0120023
:020000040020DA
:08000000FFFFFFFFFFFFFFFF00
:020000040030CA
:0E0000000008583CFFD181FF0FC00FE00F40F9
:00000001FF
