:04000000CFEF05F049
:10080000004D4943524F2073656D616E6120313355
:100810000072656E6469727365206A616D61730050
:0F082000456E7669616E646F20686F6C610000D1
:10083000F80E956E8D908D828D84210EE82EFED758
:1008400000F083CF01F08D94210EE82EFED700F04A
:100850008D84210EE82EFED700F08D940150800B80
:10086000016E47EF04F08D84210EE82EFED700F0D4
:1008700083CF01F08D94210EE82EFED700F08D84F9
:10088000210EE82EFED700F08D942EEF04F0800E9E
:100890000118D8B44EEF04F050EF04F033EF04F039
:1008A0001200F6EC04F0D2EC04F081B05AEF04F040
:1008B0005CEF04F055EF04F0000E046E010E18EC2E
:1008C00005F0200E056E080E066EADEC04F0480E25
:1008D000C4EC05F04F0EC4EC05F04C0EC4EC05F072
:1008E000410EC4EC05F0060E0E6E130E0D6EAE0E2C
:1008F000E82EFED70D2EFCD70E2EFAD7DAEC05F037
:1009000055EF04F000EF00F08D908D92300EB6ECB4
:1009100005F0030E046E980EE82EFED7042EFCD7C9
:10092000300EB6EC05F0210EE82EFED700F0300EAA
:10093000B6EC05F0200EB6EC05F0010E6CEC05F0FF
:10094000280E6CEC05F00F0E6CEC05F0060E6CEC4E
:1009500005F0010E6CEC05F0120005C001F006C0B8
:1009600002F035EC05F00150096E000E0A6EC8EF7A
:1009700004F00A500524076E000E0620086E07C01A
:10098000F6FF08C0F7FF0800F55052EC05F00A2A00
:1009900009500A5CD8A0CFEF04F0D1EF04F0B9EF12
:1009A00004F01200000E046E010E18EC05F0010EAA
:1009B000056E080E066EADEC04F0000E046E020E1D
:1009C00018EC05F0110E056E080E066EADEC04F085
:1009D000100E0C6E390E0B6E0E0EE82EFED70B2E7F
:1009E000FCD70C2EFAD7DAEC05F01200520ED36EBB
:1009F00092900F015B8193805C9193825C93F19E56
:100A000085808582949C5D9D948E5D9F0F0E956E72
:100A10000F0E5E6FF80E966EF80E5F6F000EB06EE2
:100A2000190EAF6EAC84AB8EAC8A86EC05F012006A
:100A3000056E0504D8A41FEF05F021EF05F027EFA0
:100A400005F00450800F6CEC05F034EF05F0020E59
:100A50000518D8A42EEF05F030EF05F034EF05F0BF
:100A60000450C00F6CEC05F0120001C003F002C08E
:100A700004F03DEF05F0014A022A01C0F6FF02C072
:100A8000F7FF0800F5500009D8A449EF05F04BEF37
:100A900005F03BEF05F00350015C016E0450025875
:100AA000026E1200026E8D8018EC04F0000E956E3E
:100AB000210EE82EFED700F08D928D948D8002508D
:100AC000F00B036E0350B6EC05F00238F00B036E2A
:100AD0000350B6EC05F01200026E8D9018EC04F095
:100AE000000E956E210EE82EFED700F08D928D94AB
:100AF0008D900250F00B036E0350B6EC05F00238F7
:100B0000F00B036E0350B6EC05F01200140E056EE8
:100B10007A0EE82EFED7052EFCD784EC04F0140ED6
:100B2000056E7A0EE82EFED7052EFCD7DAEC05F01E
:100B3000D6EC05F0010E9EEC05F01200046E045098
:100B4000D8A4A5EF05F0A7EF05F0AAEF05F00E0E6B
:100B50006CEC05F00404D8A4B0EF05F0B2EF05F09A
:100B6000B5EF05F00C0E6CEC05F01200016E0F0EE7
:100B70008C16F00E011601508C128D84210EE82E79
:100B8000FED700F08D941200016E01C0ADFFACA243
:100B9000CCEF05F0CEEF05F0C7EF05F01200000E28
:100BA000F86E080EF76E000151EF04F0020E6CECC7
:0C0BB00005F01200010E6CEC05F01200C4
:020000040020DA
:08000000FFFFFFFFFFFFFFFF00
:020000040030CA
:0E0000000008583CFFD181FF0FC00FE00F40F9
:00000001FF
