:0400000023EF00F0FA
:100008002482F6CF0BF0F7CF0CF0F8CF0DF0F5CF38
:100018000EF0A190000E046E010E2DEC06F0010EFC
:10002800056E080E066ECEEC05F00EC0F5FF0DC08D
:10003800F8FF0CC0F7FF0BC0F6FF249211001AEF6F
:0200480007F0BF
:1008000000594120484159204D4154434800455327
:10081000504552412E2E2E004355454E54413A200C
:1008200000001BC014F01CC015F0270E176E100E30
:10083000166E6CEC04F01450236E270E126E100E20
:10084000116E1BC00FF01CC010F04EEC05F00FC075
:1008500014F010C015F0030E176EE80E166E6CEC57
:1008600004F01450226E030E126EE80E116E1BC0BF
:100870000FF01CC010F04EEC05F00FC014F010C0CB
:1008800015F0000E176E640E166E6CEC04F014502A
:10089000216E000E126E640E116E1BC00FF01CC094
:1008A00010F04EEC05F00FC014F010C015F0000E63
:1008B000176E0A0E166E6CEC04F01450206E1BC0FE
:1008C0000FF01CC010F0000E126E0A0E116E4EECEE
:1008D00005F00F501F6E1200000E196E000E186EFC
:1008E00016501710D8B477EF04F079EF04F0A1EFA9
:1008F00004F0010E1A6E81EF04F0D8901636173608
:100900001A2A17AE86EF04F088EF04F07DEF04F0AA
:10091000D890183619361650145C17501558D8A0B0
:1009200094EF04F096EF04F09BEF04F01650145E81
:100930001750155A1880D890173216321A2E88EF91
:1009400004F018C014F019C015F01200F80E956EDE
:100950008C908C828C84210EE82EFED700F083CF01
:100960000FF08C94210EE82EFED700F08C84210E1F
:10097000E82EFED700F08C940F50800B0F6ED5EF51
:1009800004F08C84210EE82EFED700F083CF0FF008
:100990008C94210EE82EFED700F08C84210EE82ED8
:1009A000FED700F08C94BCEF04F0800E0F18D8B482
:1009B000DCEF04F0DEEF04F0C1EF04F01200F80EFB
:1009C000956E8C908C828C84210EE82EFED700F0E0
:1009D00083CF01F08C94210EE82EFED700F08C849A
:1009E000210EE82EFED700F08C940150800B016E92
:1009F0000EEF05F08C84210EE82EFED700F083CF99
:100A000001F08C94210EE82EFED700F08C84210E8C
:100A1000E82EFED700F08C94F5EF04F0800E01185C
:100A2000D8B415EF05F017EF05F0FAEF04F0120057
:100A300067EC06F0000E126E010EF3EC05F00E0EE0
:100A4000136E080E146EA9EC05F0000E126E020E65
:100A5000F3EC05F0B2CF1BF0B3CF1CF011EC04F0B7
:100A6000180E136E080E146EA9EC05F02350300F0B
:100A70009CEC06F02250300F9CEC06F02150300F19
:100A80009CEC06F02050300F9CEC06F01F50300F0D
:100A90009CEC06F025EF05F023EF00F0115012104A
:100AA000D8B455EF05F057EF05F07BEF05F0010ED8
:100AB000136E5FEF05F0D89011361236132A12AE7E
:100AC00064EF05F066EF05F05BEF05F011500F5C89
:100AD00012501058D8A06FEF05F071EF05F075EFC8
:100AE00005F011500F5E1250105AD8901232113288
:100AF000132E66EF05F00FC00FF010C010F01200BB
:100B00008C908C92300E29EC07F0030E126E980E2A
:100B1000E82EFED7122EFCD7300E29EC07F0210E5E
:100B2000E82EFED700F0300E29EC07F0200E29EC5D
:100B300007F0010E82EC06F0280E82EC06F00F0E94
:100B400082EC06F0060E82EC06F0010E82EC06F056
:100B5000120013C00FF014C010F010EC06F00F508C
:100B6000176E000E186EC4EF05F018501324156EA2
:100B7000000E1420166E15C0F6FF16C0F7FF080011
:100B8000F5509CEC06F0182A1750185CD8A0CBEF53
:100B900005F0CDEF05F0B5EF05F0120005C001F04E
:100BA00006C002F04AEC06F00150096E000E0A6E13
:100BB000E9EF05F00A500524076E000E0620086EC6
:100BC00007C0F6FF08C0F7FF0800F550D0EC06F0AC
:100BD0000A2A09500A5CD8A0F0EF05F0F2EF05F000
:100BE000DAEF05F01200136E1304D8A4FAEF05F043
:100BF000FCEF05F002EF06F01250800F82EC06F0D9
:100C00000FEF06F0020E1318D8A409EF06F00BEF51
:100C100006F00FEF06F01250C00F82EC06F0120043
:100C20000FC011F010C012F018EF06F00F4A102A92
:100C30000FC0F6FF10C0F7FF0800F5500009D8A458
:100C400024EF06F026EF06F016EF06F011500F5CC9
:100C50000F6E12501058106E1200056E0504D8A4C5
:100C600034EF06F036EF06F03CEF06F00450800F4C
:100C7000B6EC06F049EF06F0020E0518D8A443EFD3
:100C800006F045EF06F049EF06F00450C00FB6EC51
:100C900006F0120001C003F002C004F052EF06F0AB
:100CA000014A022A01C0F6FF02C0F7FF0800F55012
:100CB0000009D8A45EEF06F060EF06F050EF06F0F2
:100CC0000350015C016E04500258026E1200520E75
:100CD000D36E000E956E000E0F015E6F9492320E71
:100CE000B16E020E976E5987000E916E9068F28E6B
:100CF000F28CA080000EB36E000EB26EB180EAECF2
:100D000006F01200106E8C90A6EC04F0000E956EAA
:100D1000210EE82EFED700F08C928C948C9010500F
:100D2000F00B116E115029EC07F01038F00B116E1A
:100D3000115029EC07F01200106E8C80A6EC04F024
:100D4000000E956E210EE82EFED700F08C928C944A
:100D50008C801050F00B116E115029EC07F01038F8
:100D6000F00B116E115029EC07F01200026E8C90FE
:100D7000DFEC04F0000E956E210EE82EFED700F099
:100D80008C928C948C900250F00B036E035037ECD5
:100D900007F00238F00B036E035037EC07F0120037
:100DA000026E8C80DFEC04F0000E956E210EE82EB2
:100DB000FED700F08C928C948C800250F00B036E66
:100DC000035037EC07F00238F00B036E035037EC9A
:100DD00007F01200140E136E7A0EE82EFED7132EB3
:100DE000FCD780EC05F0140E136E7A0EE82EFED7B9
:100DF000132EFCD749EC07F045EC07F0010E02EC8E
:100E000007F01200126E1250D8A409EF07F00BEF92
:100E100007F00EEF07F00E0E82EC06F01204D8A4D5
:100E200014EF07F016EF07F019EF07F00C0E82EC45
:100E300006F0120000EE1DF0070EEE6AE806FDE176
:100E400024902492000EF86E080EF76E000118EF41
:100E500005F00F6E0F0E8C16F00E0F160F508C1241
:100E60008C84210EE82EFED700F08C941200016EC7
:100E70000F0E8C16F00E011601508C128C84210E70
:100E8000E82EFED700F08C941200020E82EC06F0E1
:0A0E90001200010E82EC06F01200C1
:020000040020DA
:08000000FFFFFFFFFFFFFFFF00
:020000040030CA
:0E0000000008583CFFD181FF0FC00FE00F40F9
:00000001FF
