:0400000023EF00F0FA
:100008002282F6CF0BF0F7CF0CF0F8CF0DF0F5CF3A
:100018000EF0A190000E046E010E29EC06F0010E00
:10002800056E080E066ECAEC05F00EC0F5FF0DC091
:10003800F8FF0CC0F7FF0BC0F6FF2292110016EF75
:0200480007F0BF
:1008000000594120484159204D415443482121007D
:100810004553504552412E2E2E004355454E5441CE
:100820003A2000001BC014F01CC015F0270E176EF4
:10083000100E166E6DEC04F01450216E270E126E21
:10084000100E116E1BC00FF01CC010F019EC05F05B
:100850000FC014F010C015F0030E176EE80E166EE0
:100860006DEC04F01450206E030E126EE80E116E43
:100870001BC00FF01CC010F019EC05F00FC014F0F5
:1008800010C015F0000E176E640E166E6DEC04F0BD
:1008900014501F6E000E126E640E116E1BC00FF00E
:1008A0001CC010F019EC05F00FC014F010C015F0CA
:1008B000000E176E0A0E166E6DEC04F014501E6ECC
:1008C0001BC00FF01CC010F0000E126E0A0E116E4D
:1008D00019EC05F00F501D6E1200000E196E000E7F
:1008E000186E16501710D8B478EF04F07AEF04F0B1
:1008F000A2EF04F0010E1A6E82EF04F0D8901636C3
:1009000017361A2A17AE87EF04F089EF04F07EEF4E
:1009100004F0D890183619361650145C1750155834
:10092000D8A095EF04F097EF04F09CEF04F0165078
:10093000145E1750155A1880D890173216321A2E96
:1009400089EF04F018C014F019C015F01200F80E69
:10095000956E8C908C828C84210EE82EFED700F050
:1009600083CF0FF08C94210EE82EFED700F08C84FC
:10097000210EE82EFED700F08C940F50800B0F6EE6
:10098000D6EF04F08C84210EE82EFED700F083CF42
:100990000FF08C94210EE82EFED700F08C84210EEF
:1009A000E82EFED700F08C94BDEF04F0800E0F18F7
:1009B000D8B4DDEF04F0DFEF04F0C2EF04F0120072
:1009C000F80E956E8C908C828C84210EE82EFED7CA
:1009D00000F083CF01F08C94210EE82EFED700F0BA
:1009E0008C84210EE82EFED700F08C940150800BF1
:1009F000016E0FEF05F08C84210EE82EFED700F07B
:100A000083CF01F08C94210EE82EFED700F08C8469
:100A1000210EE82EFED700F08C94F6EF04F0800E45
:100A20000118D8B416EF05F018EF05F0FBEF04F04D
:100A3000120011501210D8B420EF05F022EF05F08B
:100A400046EF05F0010E136E2AEF05F0D89011362F
:100A50001236132A12AE2FEF05F031EF05F026EF14
:100A600005F011500F5C12501058D8A03AEF05F065
:100A70003CEF05F040EF05F011500F5E1250105A98
:100A8000D89012321132132E31EF05F00FC00FF053
:100A900010C010F0120063EC06F0100E136E080E7A
:100AA000146EA5EC05F0000E126E020EEFEC05F0D0
:100AB000B2CF1BF0B3CF1CF012EC04F01A0E136E81
:100AC000080E146EA5EC05F02150300F98EC06F0DE
:100AD0002050300F98EC06F01F50300F98EC06F0C5
:100AE0001E50300F98EC06F01D50300F98EC06F0B9
:100AF00053EF05F023EF00F08C908C92300E24EC35
:100B000007F0030E126E980EE82EFED7122EFCD7B9
:100B1000300E24EC07F0210EE82EFED700F0300E48
:100B200024EC07F0200E24EC07F0010E7EEC06F01A
:100B3000280E7EEC06F00F0E7EEC06F0060E7EEC24
:100B400006F0010E7EEC06F0120013C00FF014C088
:100B500010F00CEC06F00F50176E000E186EC0EF80
:100B600005F018501324156E000E1420166E15C0D3
:100B7000F6FF16C0F7FF0800F55098EC06F0182AAB
:100B80001750185CD8A0C7EF05F0C9EF05F0B1EF1A
:100B900005F0120005C001F006C002F046EC06F0B8
:100BA0000150096E000E0A6EE5EF05F00A500524AB
:100BB000076E000E0620086E07C0F6FF08C0F7FF9C
:100BC0000800F550CCEC06F00A2A09500A5CD8A0BF
:100BD000ECEF05F0EEEF05F0D6EF05F01200136E26
:100BE0001304D8A4F6EF05F0F8EF05F0FEEF05F0DA
:100BF0001250800F7EEC06F00BEF06F0020E131879
:100C0000D8A405EF06F007EF06F00BEF06F0125040
:100C1000C00F7EEC06F012000FC011F010C012F0F1
:100C200014EF06F00F4A102A0FC0F6FF10C0F7FFAE
:100C30000800F5500009D8A420EF06F022EF06F0D6
:100C400012EF06F011500F5C0F6E12501058106E1C
:100C50001200056E0504D8A430EF06F032EF06F05E
:100C600038EF06F00450800FB2EC06F045EF06F0C6
:100C7000020E0518D8A43FEF06F041EF06F045EF4D
:100C800006F00450C00FB2EC06F0120001C003F0F1
:100C900002C004F04EEF06F0014A022A01C0F6FF3E
:100CA00002C0F7FF0800F5500009D8A45AEF06F07B
:100CB0005CEF06F04CEF06F00350015C016E04504F
:100CC0000258026E1200520ED36E000E956E000E88
:100CD0000F015E6F9492300EB16E020E976E5987BF
:100CE000000E916E9068F28EF28CA080000EB36EB2
:100CF000000EB26EB180E6EC06F01200106E8C9021
:100D0000A7EC04F0000E956E210EE82EFED700F041
:100D10008C928C948C901050F00B116E115024EC2E
:100D200007F01038F00B116E115024EC07F0120090
:100D3000106E8C80A7EC04F0000E956E210EE82E4C
:100D4000FED700F08C928C948C801050F00B116EBA
:100D5000115024EC07F01038F00B116E115024ECF8
:100D600007F01200026E8C90E0EC04F0000E956E1D
:100D7000210EE82EFED700F08C928C948C900250BD
:100D8000F00B036E035032EC07F00238F00B036EE9
:100D9000035032EC07F01200026E8C80E0EC04F09D
:100DA000000E956E210EE82EFED700F08C928C94EA
:100DB0008C800250F00B036E035032EC07F00238C7
:100DC000F00B036E035032EC07F01200140E136E9A
:100DD0007A0EE82EFED7132EFCD77CEC05F0140E0D
:100DE000136E7A0EE82EFED7132EFCD744EC07F0D4
:100DF00040EC07F0010EFEEC06F01200126E1250ED
:100E0000D8A405EF07F007EF07F00AEF07F00E0E82
:100E10007EEC06F01204D8A410EF07F012EF07F0F2
:100E200015EF07F00C0E7EEC06F01200216A206A26
:100E30001F6A1E6A1D6A22902292000EF86E080E2A
:100E4000F76E00014BEF05F00F6E0F0E8C16F00ED3
:100E50000F160F508C128C84210EE82EFED700F056
:100E60008C941200016E0F0E8C16F00E01160150BC
:100E70008C128C84210EE82EFED700F08C94120088
:100E8000020E7EEC06F01200010E7EEC06F012005F
:020000040020DA
:08000000FFFFFFFFFFFFFFFF00
:020000040030CA
:0E0000000008583CFFD181FF0FC00FE00F40F9
:00000001FF
