:040000007EEF05F09A
:1008000000484F4C41204D554E444F2050455246D4
:100810004543544F0000520ED36E000E956E000EED
:100820000F015E6F40EC05F0010E056E080E066EBE
:10083000CAEC04F0060E0C6E130E0B6EAE0EE82E14
:10084000FED70B2EFCD70C2EFAD78DEC05F0060E3A
:100850000C6E130E0B6EAE0EE82EFED70B2EFCD7D1
:100860000C2EFAD78DEC05F0060E0C6E130E0B6EE7
:10087000AE0EE82EFED70B2EFCD70C2EFAD78DEC41
:1008800005F0060E0C6E130E0B6EAE0EE82EFED7A4
:100890000B2EFCD70C2EFAD78DEC05F0060E0C6E45
:1008A000130E0B6EAE0EE82EFED70B2EFCD70C2EC1
:1008B000FAD78DEC05F0060E0C6E130E0B6EAE0E15
:1008C000E82EFED70B2EFCD70C2EFAD700EF00F047
:1008D000F80E956E8C908C828C84210EE82EFED7BB
:1008E00000F083CF01F08C94210EE82EFED700F0AB
:1008F0008C84210EE82EFED700F08C940150800BE2
:10090000016E97EF04F08C84210EE82EFED700F0E4
:1009100083CF01F08C94210EE82EFED700F08C845A
:10092000210EE82EFED700F08C947EEF04F0800EAE
:100930000118D8B49EEF04F0A0EF04F083EF04F0A8
:1009400012008C908C92300E70EC05F0030E046E49
:10095000980EE82EFED7042EFCD7300E70EC05F072
:10096000210EE82EFED700F0300E70EC05F0200EC0
:1009700070EC05F0010E26EC05F0280E26EC05F0D3
:100980000F0E26EC05F0060E26EC05F0010E26EC07
:1009900005F0120005C001F006C002F0EFEC04F013
:1009A0000150096E000E0A6EE5EF04F00A500524AE
:1009B000076E000E0620086E07C0F6FF08C0F7FF9E
:1009C0000800F5500CEC05F00A2A09500A5CD8A082
:1009D000ECEF04F0EEEF04F0D6EF04F0120001C0EB
:1009E00003F002C004F0F7EF04F0014A022A01C04C
:1009F000F6FF02C0F7FF0800F5500009D8A403EF86
:100A000005F005EF05F0F5EF04F00350015C016E11
:100A100004500258026E1200026E8C8068EC04F0E2
:100A2000000E956E210EE82EFED700F08C928C946D
:100A30008C800250F00B036E035070EC05F002380E
:100A4000F00B036E035070EC05F01200026E8C90F8
:100A500068EC04F0000E956E210EE82EFED700F033
:100A60008C928C948C900250F00B036E035070ECBF
:100A700005F00238F00B036E035070EC05F0120025
:100A8000140E056E7A0EE82EFED7052EFCD7A1ECCB
:100A900004F0140E056E7A0EE82EFED7052EFCD754
:100AA00089EC05F085EC05F0010E58EC05F012001C
:100AB000046E0450D8A45FEF05F061EF05F064EF19
:100AC00005F00E0E26EC05F00404D8A46AEF05F03C
:100AD0006CEF05F06FEF05F00C0E26EC05F0120040
:100AE000016E0F0E8C16F00E011601508C128C84C4
:100AF000210EE82EFED700F08C941200000EF86E46
:100B0000080EF76E00010BEF04F0020E26EC05F064
:100B10001200010E26EC05F01200180E26EC05F06E
:020B20001200C1
:020000040020DA
:08000000FFFFFFFFFFFFFFFF00
:020000040030CA
:0E0000000008583CFFD181FF0FC00FE00F40F9
:00000001FF
